:020000040800F2
:100000000806002005010008F71700084D17000832
:10001000F5170008410A00084D1A0008000000000A
:10002000000000000000000000000000FB170008B6
:10003000430A000800000000F9170008FD17000837
:100040001F0100081F0100081F0100081F01000810
:100050001F0100081F0100081F0100081F01000800
:100060001F0100081F0100081F0100081F010008F0
:100070001F0100081F0100081F0100081F010008E0
:100080001F0100081F0100081F0100081F010008D0
:100090001F0100081F0100081F0100081F010008C0
:1000A0001F0100081F0100081F0100081F010008B0
:1000B0001F0100081F0100081F0100081F010008A0
:1000C0001F0100081F0100081F0100081F01000890
:1000D0001F010008411A00081F0100081F01000845
:1000E0001F0100081F0100081F010008DFF810D0E1
:1000F00000F0ECFA00480047211C0008AFF3008034
:10010000080600200648804706480047FEE7FEE74D
:10011000FEE7FEE7FEE7FEE7FEE7FEE7FEE7FEE7B7
:1001200059180008ED000008202A04DB203A21FAC3
:1001300002F00021704721FA02F3D040C2F1200200
:10014000914008431946704740EA01039B0703D0DA
:1001500009E008C9121F08C0042AFAD203E011F806
:10016000013B00F8013B521EF9D27047D2B201E0C8
:1001700000F8012B491EFBD270470022F6E710B5AC
:1001800013460A4604461946FFF7F0FF204610BD05
:10019000421E12F8013F002BFBD111F8013B02F87F
:1001A000013B002BF9D1704770B5064601F074FC95
:1001B000046805460A220021304600F0F1F92C605F
:1001C00070BD2DE9FE4F804681EA0300C00F0C464A
:1001D000009021F0004123F00045B8EB0200A94156
:1001E00005D24046214690461C460B46024623F067
:1001F0000040104347D0270DC7F30A00C3F30A514C
:100200000290401A019040286BDAC3F3130040F4C7
:10021000801B0098924620B10023D2EB030A63EBC7
:100220000B0B01985946C0F14002504600F097F977
:1002300006460D4650465946019A00F09FF910EBCC
:1002400008006141002487EA115284EAE7731A43E7
:1002500040D0009A62B3019A012A4FEA075215DC96
:10026000001B61EB02014FF0004202EA0752CDE9A8
:100270000042001C41F5801132462B4600F0D7F9B0
:1002800003B0BDE8F08F40462146F9E7001B61EB63
:100290000201001C41F5801300185B412018A2F5F3
:1002A000001747EB030140EAD570B6196D4111E024
:1002B0006D084FEA360645EAC0754FEA0752001B43
:1002C00061EB0201001C41F5801149084FEA300042
:1002D0000019514132462B4603B0BDE8F04F00F003
:1002E00097B90098012240000023D0EB020263EB93
:1002F000E073009821464FEAE074B8EB000061EB30
:100300000401E9E783F000435BE781F0004158E72F
:100310002DE9FE4F81EA030404F0004421F000417E
:1003200000944FF0000B23F0004350EA01045ED02C
:1003300052EA03045BD0C3F30A54C1F30A552C44B8
:10034000A4F2F3340194A0FB0254C1F3130141F46D
:100350008011C3F3130343F4801301FB024400FB39
:10036000034E840A970A44EA815447EA8357A4FB60
:10037000076802958D0A05FB07854FEA932C04FB5D
:100380000C542705029D4FEA065847EA1637B5EB8D
:1003900008056EEB070C870E920E47EA811742EABA
:1003A0008312A7FB0201B6EB0B0164EB00042B0DDB
:1003B00043EA0C335E1844EB1C50DA465146E7FB27
:1003C0000201C5F313044FEA0B3343EA14534FEA17
:1003D0000432019C43EA0603A4F10C040294009C3D
:1003E000CDE900B400F023F903B0BDE8F08F0020A0
:1003F0000146F9E72DE9F04D81EA030404F0004BD2
:1004000021F0004514464FF0000A23F0004150EA65
:10041000050220D054EA01021DD0C5F30A57024656
:10042000C5F31303C1F31300C1F30A5640F480155A
:1004300043F48013A7EB0608101BD64608F2FD38DC
:1004400073EB050002D308F1010801E092185B414B
:10045000B8F1000F03DA00200146BDE8F08D00205E
:100460004FF48011064684460EE0171B73EB050718
:1004700005D3121B63EB050306434CEA010C490844
:100480004FEA300092185B4150EA0107EDD152EA81
:10049000030012D082EA040083EA0501084305D074
:1004A000101BAB4106D20122002306E000224FF0D0
:1004B000004302E06FF0010253101AEB06004CEB10
:1004C000085110EB0A0041EB0B01BDE8F04D00F0C4
:1004D0009FB80EB5C10F80EAE0700844CA0700213A
:1004E00040F233438DE80E000A460B4600F09FF8B9
:1004F00003B000BD70B5C1F30A5201F000450024FD
:10050000C1F3130140F2FF3341F480119A4201DA42
:10051000002070BD40F233439A42A2F2334203DC22
:100520005242FFF701FE00E090402C43F1D04042E0
:1005300070BD30B50B46014600202022012409E0A1
:1005400021FA02F59D4205D303FA02F5491B04FA8C
:1005500002F52844151EA2F10102F1DC30BD202A6B
:1005600004DB203A00FA02F1002070479140C2F10A
:10057000200320FA03F3194390407047202A06DB3A
:10058000CB17203A41FA02F043EAE07306E041FA61
:1005900002F3D040C2F1200291400843194670474F
:1005A0002DE9F04791460F4680460446002614F890
:1005B000015B2DB100F09CF80068405DC007F6D1EA
:1005C0002B2D02D02D2D18D0641E4A4639462046C8
:1005D00000F092F827B13968A14201D1C7F8008034
:1005E00071054FF002040BD54042002803DD01F0F5
:1005F00053FA0460A007BDE8F08746F48066E4E79C
:100600000028F8DA01F048FA04606FF00040F2E7E1
:1006100010B5141E73F1000408DA401C41F100010A
:1006200092185B411A4301D120F0010010BD2DE961
:10063000F04D92469B4611B1B1FA81F202E0B0FA58
:1006400080F220329046FFF78AFF04460F4640EAC8
:100650000A0041EA0B0153465A46084313D011469B
:1006600053EA010019D0C8F140025046FFF75CFD83
:1006700005460E46504659464246FFF770FF08436E
:1006800005D0012004E020463946BDE8F08D002069
:10069000054346EAE0762C4337430A986305E40AAB
:1006A000A0EB08000022FD0A44EA47540A3002D5B4
:1006B00000200146E9E7010510196941DDE9084517
:1006C00000196941BDE8F04DA2E70000064C074D56
:1006D00006E0E06840F0010394E807009847103412
:1006E000AC42F6D3FFF706FD94200008B4200008C2
:1006F00000487047902000082DE9F05F824600789E
:10070000002715468B460AF10104B946302801D06E
:100710009DB113E014F8010B0127782803D0582865
:1007200001D045B10AE00DB1102D07D100271025E9
:1007300014F8010B02E0082500E00A250026B04667
:100740000EE005FB080005FB06F1012701EB104652
:100750001FFA80F8B6F5803F00D3B94614F8010BB4
:10076000294600F018F80028EBDABBF1000F05D09D
:100770000FB1641E00E05446CBF80040B9F1000F01
:1007800006D001F089F902210160C81EBDE8F09F82
:1007900048EA0640FAE73A2800D2303820F0200232
:1007A000412A01D3A2F13700884201D34FF0FF3034
:1007B000704700002DE9F041224D0C46074601220A
:1007C0004021284600F0B0FA01228021284600F09E
:1007D000ABFA1D4E01221146304600F0A5FA012267
:1007E0000221304600F0A0FA01222021284600F024
:1007F0009BFA01221021284600F096FA384600F0B4
:1008000025F8002000EB80014FF47A7354F8212082
:10081000401C5A4344F821200428F3D3204600F01A
:100820005BF800204FF47A7200EB8001401C54F812
:100830002130042893FBF2F344F82130F4D3BDE8CF
:10084000F081000000080140000C014070B5204C10
:10085000204DB8B1012828D0022812D10022102141
:10086000204600F061FA42F2020003461A461146A1
:1008700001F050FB01221021204600F055FA022021
:10088000287070BD00221021204600F04DFA4FF470
:10089000005003461A46114601F03CFB012210218C
:1008A000204600F041FA0020EAE70022102120460D
:1008B00000F03AFA42F2280003461A46114601F0C7
:1008C00029FB01221021204600F02EFA0120D7E753
:1008D00000080140140000202DE9F05F074600BF2A
:1008E00000BF00BF00BF00BF0024514EDFF83891A9
:1008F000DFF838B14FF4B47AA6F1080804EB8400AD
:1009000007EB80056968002902DA0021696003E0CD
:10091000514501DDC5F804A0696801EB410202EB15
:10092000C10141F4404249F8242057F82000FFF764
:10093000D0FD00225B46FFF7EBFC00223D4BFFF7AA
:1009400059FD00223C4BFFF73CFCFFF7D3FDC0F301
:100950000D0242F48042C0F38D3128F8142041F496
:10096000804026F81400298A0122E86800F0DCF9AA
:10097000641C042CC2DB314C01222021204600F0F3
:10098000D3F901221021204600F0CEF900221021D7
:10099000204600F0C9F900BF00BF00BF00BF00BF84
:1009A0004FF4045003461A46114601F0B3FAB8F862
:1009B0000630B8F90420B8F80210B8F8000001F0C9
:1009C000A9FAF388B6F904207188308801F0A2FAF8
:1009D000B9F80C10B9F800008BB2B9F8081080B261
:1009E0000AB2B9F8041089B201F094FA4FF4005039
:1009F00003461A46114601F08DFA00BF00BF00BF42
:100A000000BF00BF01221021204600F08DF90848E8
:100A10001C380078FFF71AFF00BF00BF00BF00BFFF
:100A200000BFBDE8F09F0000F80100200000B041C9
:100A30003000002084D777410000F03F00080140DB
:100A4000FEE7704710B590F821100022022905D06A
:100A50000421816380F82020012010BD01680B680B
:100A600023F00E030B6001680B6823F001030B6099
:100A700090F84030C46B012101FA03F3636080F801
:100A8000211080F82020104610BD000010B590F80D
:100A900021100024022903D00421816301243DE0B8
:100AA00001680A6822F00E020A6001680A6822F0F2
:100AB00001020A601A4A0168914201D1012121E034
:100AC000174A1432914201D110211BE0144A2832F6
:100AD000914201D1891515E0114A3C32914201D170
:100AE00089140FE00E4A5032914202D14FF4803106
:100AF00008E00B4A6432914202D14FF4801101E0C8
:100B00004FF08071064A083A5160012180F82110A7
:100B1000002180F82010416B01B18847204610BDAC
:100B20000800024070B5044600F004F90546601C58
:100B300002D004480078044400F0FCF8401BA042B6
:100B4000FAD370BD380000202DE9F84FDFF8B891D6
:100B5000002409F1040A0AF1040B23460F270BF1C4
:100B6000040EC9E00125A5402A40AA427DD1674E66
:100B7000D1F804C0ACEB0608B44532D014DCBCF1AB
:100B8000030F3AD009DCBCF1000F2AD0BCF1010FF1
:100B90001CD0BCF1020F31D11DE0BCF1110F17D0F8
:100BA000BCF1120F2AD119E0B8F5881F19D006DC64
:100BB000B8F5803F15D0B8F5801F1FD111E0B8F50A
:100BC000001F0ED0B8F5041F18D10AE0CB6815E05D
:100BD000CB681B1D12E0CB6808330FE0CB680C33E9
:100BE0000CE08B682BB1012B4FF0080303D045615B
:100BF00004E0042302E0056100E00023FF2A01D89D
:100C0000064601E000F104064FEA840501D9A5F18A
:100C10002005D6F8008007FA05FC28EA0C0803FA3C
:100C200005F548EA0508C6F800804D68ED0062D574
:100C3000374DAE6946F00106AE61AD6924F003069A
:100C400005F001050095334D06EB050CDCF8085066
:100C5000A607360F07FA06F825EA0805DFF8B88078
:100C6000404503D14FF0000817E044E0DFF8AC80C6
:100C7000404502D14FF001080FE0DFF8A480404565
:100C800002D14FF0020808E0DFF89880404502D119
:100C90004FF0030801E04FF0040808FA06F848EAAC
:100CA0000508CCF808804D68D9F80060ED034D4682
:100CB00001D5164300E096432E604D68DAF80060D7
:100CC000AD03554601D5164300E096432E604D68AE
:100CD000DBF80060ED025D4601D5164300E0964367
:100CE0002E604D68DEF80060AD02754601D51643F2
:100CF00000E096432E60641C0D682A46E5407FF4B0
:100D000031AFBDE8F88F0000000401400000111071
:100D1000001002400000014000080140000C0140AA
:100D200000100140001401400AB10161704709043C
:100D3000FBE7000001488068704700003800002091
:100D400002488168027811448160704738000020B1
:100D5000074810B5016841F010010160032000F060
:100D600075F8002000F006F800F024F8002010BD0F
:100D70000020024070B50D4D04464FF47A7128787A
:100D8000B1FBF0F00A490968B1FBF0F000F0ECFAB1
:100D900048B9102C07D200222146501E00F036F828
:100DA00000206C6070BD012070BD00003800002084
:100DB000440000200C4808B5816941F001018161BF
:100DC000816901F001010091C16941F08051C16167
:100DD000C06900F0805000900448416821F0E06153
:100DE00041F00071416008BD001002400000014068
:100DF000002809DB00F01F0201219140400980001A
:100E000000F1E020C0F8001170470000F0B40E4B74
:100E10001B680C46C3F30223C3F10705042D00D958
:100E20000425191D072901D2002300E0DB1E01263D
:100E300006FA05F1491E214099409E40761E164053
:100E40003143F0BC00F018BE0CED00E0064900F0A4
:100E5000070208684FF6FF03184040EA0220034AE1
:100E600010430860704700000CED00E00000FA0538
:100E70002DE9F0470F46050061D0434E306800F081
:100E80000700B84209D2306820F0070038433060CC
:100E9000306800F00700B84251D128683B4C810708
:100EA00012D5400703D5606840F4E06060602878A0
:100EB000000703D5606840F4605060606068A9680E
:100EC00020F0F000084360602878C00728D06868E8
:100ED000012810D02168022810D0890700292EDAB5
:100EE000616821F0030101436160FFF723FF804641
:100EF00041F288390DE021688903EFE78901EDE7C8
:100F0000FFF718FFA0EB0801494502D90320BDE80F
:100F1000F0876068696800F00C00B0EB810FEFD1DA
:100F2000306800F00700B8420BD9306820F00700A5
:100F300038433060306800F00700B84201D001202B
:100F4000E5E72878400705D56068E96820F4E060A7
:100F5000084360602878000706D56068296920F496
:100F6000605040EAC100606000F038F86168084AEB
:100F7000C1F30311515CC840064908600648006887
:100F8000FFF7F8FE0020C2E70020024000100240F8
:100F9000F61F0008440000203C00002004480549DA
:100FA00000684968044AC1F30221515CC840704797
:100FB00044000020001002400620000804480549B3
:100FC00000684968044AC1F3C221515CC8407047B7
:100FD00044000020001002400620000812A185B045
:100FE0000FC98DE80F0014A0144A006804905168DE
:100FF000134801F00C03042B10D0082B0ED1C1F3C1
:101000008343C9031DF803000AD5516804AAC1F33C
:101010004041515C0A4A5043B0FBF1F005B07047C3
:1010200008494843FAE700000203040506070809D7
:101030000A0B0C0D0E0F10100102000000100240F0
:1010400000127A0000093D002DE9F84F040070D02D
:101050002078C04DC00749D06868C0F381000128DE
:1010600007D06868C0F38100022809D16868C0030E
:1010700006D52868800339D560680028E7D035E0B8
:101080006068B0F5803F0BD010B1B0F5A02F11D043
:10109000286820F480302860286820F4802002E04E
:1010A000286840F480302860606890B1FFF742FE05
:1010B00006460AE0286840F480202860F0E700BF78
:1010C000FFF738FE801B642873D828688003F7D5A3
:1010D0000CE0FFF72FFE064605E000BFFFF72AFEF3
:1010E000801B6428F0D828688003F7D420789A4EB3
:1010F00080074FF001094FF0000839D5686810F0FB
:101100000C0F07D06868C0F38100022809D1686815
:10111000C00306D42868800714D52069012808D1A7
:1011200010E02069B0B1C6F80090FFF703FE074653
:1011300005E00AE1FFF7FEFDC01B0228C4D82868BD
:101140008007F7D52868616920F0F80040EAC100FF
:1011500028600DE0C6F80080FFF7ECFD074604E0CC
:10116000FFF7E8FDC01B022823D828688007F7D4C2
:10117000207800072CD57948A169D9B1C0F8009032
:10118000FFF7D8FD074604E0FFF7D4FDC01B022897
:101190000FD8686A8007F7D571484FF4FA51006894
:1011A000B0FBF1F0009000BF0098411E0091FAD210
:1011B0000EE080E0C0F80080FFF7BCFD074604E0C9
:1011C000FFF7B8FDC01B022875D8686A8007F7D4FE
:1011D0002078400760D5E8690027C00008D4E86996
:1011E00040F08050E861E869012700F080500090ED
:1011F0005C480168C90513D40168834641F48071D5
:101200000160FFF797FD824606E000BFFFF792FD01
:10121000A0EB0A0064284ED8DBF80000C005F5D525
:10122000E06801280AD008B1052813D0286A20F008
:1012300001002862286A20F0040002E0286A40F0D9
:1012400001002862E06841F2883B98B1FFF772FD27
:1012500082460BE0286A40F004002862EEE700BFF7
:10126000FFF768FDA0EB0A0159455AD8286A8007A4
:10127000F6D50CE0FFF75EFD824605E0FFF75AFD6C
:10128000A0EB0A0159454CD8286A8007F6D41FB153
:10129000E86920F08050E861E06988B36968C1F3CB
:1012A0008101022944D00228C6F8608004D0FFF7EB
:1012B00041FD044638E034E0FFF73CFD074604E01A
:1012C000FFF738FDC01B02282BD828688001F7D40F
:1012D000206AB0F5803F05D16868A16820F400302D
:1012E00008436860D4E908010843696821F474116F
:1012F00008436860C6F86090FFF71CFD044606E0EE
:1013000025E000BFFFF716FD001B022809D828685A
:101310008001F7D51BE000BFFFF70CFD001B022882
:1013200002D90320BDE8F88F28688001F4D40EE0CC
:101330000128F7D06868226A00F48031914204D114
:10134000616A00F47010884201D00120EAE70020B1
:10135000E8E70000001002400000424280044242E0
:10136000440000200070004010B5401EB0F1807FA6
:1013700001D3012010BD4FF0E02460610F21601700
:1013800000F07AFB0020A06107202061002010BD42
:1013900070477047F8B5026804461068D168536911
:1013A00010F00F0F4FF0000553D003F0010601F4C9
:1013B000907737435FD0C20705D0CA0503D5226CAA
:1013C00042F001022264420705D5DA0703D0226CFD
:1013D00042F002022264820705D5DA0703D0226CAC
:1013E00042F004022264020707D501F020023243D2
:1013F00003D0226C42F008022264226C002A34D00E
:10140000800604D5880602D5204600F046FA2068FA
:101410004069216CC0F38010090700D430B3204626
:1014200000F023FA2068416949061BD5416921F083
:1014300040014161A06BA8B158494163A06BFFF71F
:1014400025FB002811D0A06B416B01B0BDE8F04036
:10145000084783060FD58B060DD52046BDE8F8401A
:1014600000F01BBA2046FFF794FFF8BD2046FFF7B7
:1014700090FF2564F8BD266B2023012E52D1C606AD
:1014800050D5CE064ED51068506800905069400681
:101490002AD5A16B086840680004000CEAD0A68D2C
:1014A0008642E7D9E0858869202818D0D06820F4E2
:1014B0008070D0602068416921F00101416120689D
:1014C000416921F04001416184F83E302563206884
:1014D000C16821F01001C160A06BFFF7B3FAA08DC5
:1014E000E18D401A81B219E0A08DE18D401A81B2E0
:1014F000E08D0028BED00029BCD0D06820F49070C8
:10150000D0602068426922F00102426184F83E30D6
:1015100025632068C26822F01002C2602046FFF7EF
:1015200037FFF8BD05062BD50D0629D594F83D00EB
:101530002128F6D1A068B0F5805F01D12069B0B153
:10154000206A411C2162216800784860E08C401EBE
:101550000004000CE084E4D12068C16821F080011F
:10156000C1602068C16841F04001C160F8BD206AD7
:101570000088C0F308005060206A801C2062E5E704
:101580004006F3D54806F1D5D168204621F0400148
:10159000D16084F83D3000F0D7F8F8BD5B18000842
:1015A00070B5040004D094F83D00002510B106E0A9
:1015B000012070BD84F83C50204600F023F8242020
:1015C00084F83D002068C16821F40051C1602046C4
:1015D00000F0BEF92068016921F4904101612068A2
:1015E000416921F02A0141612068C16841F400513C
:1015F000C1602564202084F83D0084F83E0000206E
:1016000070BD000030B585B00024009401940294B0
:1016100003940068184988422CD11848816941F424
:1016200080418161816901F480410491816941F0C7
:10163000040181618069124D00F0040004904FF4B0
:101640000070009002200190032003906946284614
:10165000FFF77AFA2815CDE9000469462846029476
:10166000FFF772FA002211462520FFF7CFFB252055
:10167000FFF7BEFB05B030BD00380140001002404E
:101680000008014090F83E30202B0ED159B152B1E4
:1016900090F83C30012B08D0012380F83C30002327
:1016A000036300F0B1B901207047022070470000C9
:1016B00070B5234C23490025A078E2780A54D0B1B4
:1016C000432A02D0462A08D00CE0014411F8011C3C
:1016D000502907D1411E217004E0014411F8011C7A
:1016E000462915D0622806D9A570042060606421BF
:1016F0001448FEF742FDA0781149401CA070E57027
:10170000BDE870400F480122C91C4438FFF7BABF3A
:10171000616801290DD02178421A0A49521C01F151
:101720006400FEF711FDA0782178401A6070012056
:10173000606064210348FEF720FD2570A570DAE79C
:10174000000000209000002000BF7047FEE700006E
:101750002DE9F04186B000262348009601960296B6
:101760000396816941F020018161816901F02001C6
:101770000491816941F004018161816901F00401F2
:101780000491816941F0080181618069174F00F07F
:10179000080004900022F0213846FFF7C5FADFF870
:1017A0005080002203214046FFF7BEFA0325F020B7
:1017B000012403958DE8510069463846FFF7C4F9C6
:1017C0003020CDE9000469463846CDE90245FFF7EF
:1017D000BBF9CDE90054CDE9026569464046FFF703
:1017E000B3F906B0BDE8F0810010024000080140E6
:1017F000000C0140FEE7FEE770477047FFF7A0BA14
:1018000030B58FB028216846FEF7B7FC14210AA82E
:10181000FEF7B3FC022501200490009510200590EE
:1018200000244FF4C010CDE9084007956846FFF743
:101830000BFC08B172B6FEE70F200A90CDE90B54FD
:101840000D9401210AA80E94FFF712FB002801D085
:1018500072B6FEE70FB030BD704710B5406A002188
:10186000C185C184FFF795FD10BD0168CA6822F4E7
:101870009072CA6001684A6922F001024A61016BF4
:10188000012904D10168CA6822F01002CA6020212F
:1018900080F83E1000210163704708B590F83E10B3
:1018A000222901D0022008BD82684FF480539A4259
:1018B00001D1016921B1816A9A421BD04AB10AE083
:1018C0000268816A5268C2F308020A80816A891C30
:1018D00008E0026972B10268526802F07F020A7081
:1018E000816A491C8162C18D491E0904090CC185A8
:1018F00003D019E002685268F1E70168CA6822F073
:101900002002CA600168CA6822F48072CA60016855
:101910004A6922F001024A61202180F83E10016BE1
:10192000012903D0FFF7C4FE002008BD0021016398
:101930000168CA6822F01002CA6001680A68D2060B
:1019400002D50A6849680091818DFFF721FDEBE718
:1019500070B5044600680169E26821F44051114302
:1019600001612169A0680843616908432168CA6868
:1019700041F20C639A430243CA6020684169A2693C
:1019800021F44071114341611E492068884202D10F
:10199000FFF714FB01E0FFF701FB00EBC00101EBD7
:1019A0000012606864218000B2FBF0F3B3FBF1F336
:1019B0006FF018067343B2FBF0F5B2FBF0F605EBDF
:1019C0008305322303EB0515B5FBF1F5B6FBF1F604
:1019D00005F0F00505EB0615B2FBF0F6B2FBF0F0F2
:1019E000B0FBF1F06FF01802504306EB800003EB00
:1019F0000010B0FBF1F0216800F00F00284488606F
:101A000070BD00000038014081628285C2850021DE
:101A10000164222280F83E2080F83C100168CA68E8
:101A200042F48072CA6001684A6942F001024A6168
:101A30000068C16841F02001C160002070470000CB
:101A40000148FFF7A7BC00004C000020FEE70000A3
:101A50000FB4084B10B504A902AA039800F030F89F
:101A6000044602A9002000F0D5F8204610BC5DF81D
:101A700014FB0000151C00080907090E002804DBF0
:101A800000F1E02080F80014704700F00F0000F132
:101A9000E02080F8141D704700487047480000207F
:101AA00002E008C8121F08C1002AFAD17047704727
:101AB000002001E001C1121F002AFBD17047000085
:101AC0002DE9FF4F89B09B460446002506E02528F6
:101AD0000BD05A460B999047641C6D1C2078002847
:101AE000F5D10DB02846BDE8F08F0027B846012299
:101AF000474900E0074314F8013F203B02FA03F096
:101B00000842F7D120782E2819D114F8010F47F098
:101B100004072A280ED06FF02F022078A0F13001A0
:101B200009290CD808EB880102EB410100EB010800
:101B3000641CF2E70A98641C50F8048B0A90207821
:101B40000028CED0642808D0692806D075281ED079
:101B50005A460B9990476D1C58E00A994FF00A09B4
:101B600001C90A91002802DA40422D2102E039051C
:101B700004D52B218DF82010012103E0F90704D0B2
:101B80002021F7E78A4608AE0DE00021FAE70A991E
:101B90004FF00A0901C90A91F7E74946FEF7C9FC67
:101BA000303106F8011D0028F7D1ADEB060000F139
:101BB0002009780701D44FF00108C84502DDA8EBE1
:101BC000090000E000208046002706E008A85A46E9
:101BD000C05D0B9990476D1C7F1C5745F6DB04E0F8
:101BE00030205A460B9990476D1CB8F10001A8F1BE
:101BF0000108F5DC05E016F8010B5A460B999047F1
:101C00006D1CB9F10001A9F10109F4DC641C65E760
:101C1000092801000A68531C0B601070704700000F
:101C200092B0FFF795F8FFF7EBFDFFF791FD5E48E7
:101C30005C49002501604FF41651C0E901150C21E3
:101C4000C560C0E904518561C561FFF7A9FC08B111
:101C500072B6FEE7012255495348FFF713FD544A77
:101C6000544E002000EB8001401C46F8212006EB7A
:101C7000810104284D60F5D34F484021F060318246
:101C800030628020B0844D48012170633187B06498
:101C90000227484A0020A6F84C70503200EB80031F
:101CA00002EB830142F8235006EB83034D60DC68AE
:101CB000CC601B8A0B82431C401C0B720428EDD3A2
:101CC0003C490020FEF776FD384CE41E6068E8B31E
:101CD000012802D002285DD10DE0364A6178A2F1D8
:101CE000640000F073F83348642164386760FEF7DD
:101CF00044FA6570EAE72F4900202561FEF75AFD96
:101D00000B950C950D950E950F9520222C4901A849
:101D10001095FEF719FA2BA02BA1006811900BA8C3
:101D20003268FFF795FE28A10EA87268FFF790FEB3
:101D30000BA901A8FEF72CFA11A901A8FEF728FAB1
:101D40000EA901A8FEF724FA656023E0FFE7D4E9B5
:101D50000210884202D300BF2561B7E722698242A0
:101D600006D20120FEF7DEFE2069401C2061ADE7AF
:101D7000904205D10F4900205031FEF71BFDF0E7DE
:101D80008A4209D2824207D90120FEF7CBFE2069A0
:101D9000401C206100BF99E78A4297D167602561A6
:101DA00094E70000003801404C00002003000020B0
:101DB00040420F005801002000080140000C014083
:101DC000D81F000820503A00256400002DE9F04F8C
:101DD00000278BB091460E4605463C46BA46DFF8D2
:101DE00030B18FE0285D4E2807D1281907EB870214
:101DF000407809EB820130380872285D662802D0ED
:101E0000542846D07CE00021CDF81CA0CDF820A0BD
:101E1000641CCDF818A0CDF808A0CDF80CA0884619
:101E2000E0B206ABCDF810A004E05A54491C401CA7
:101E3000C9B2C0B22A5C702A01D0B042F5D3401CAE
:101E4000C4B21846FEF7B0F9014607EB87000A90C6
:101E500049F8201002A907E001F8080008F1010084
:101E6000641C00F0FF08E4B2285D4E2805D0B4429F
:101E700003D2462801D05428EED1641EE4B20846AD
:101E8000FEF792F90A997F1C09EB8101FFB24860C5
:101E900036E0A41CCDF81CA00020CDF820A0E4B2B0
:101EA000CDF818A0CDF808A0CDF80CA0804606AA61
:101EB000CDF810A004E01154401C641CC0B2E4B280
:101EC000295D542901D0B442F5D31046FEF76CF9D0
:101ED000641CE4B202A9CBF8080007E001F808008E
:101EE00008F10100641C00F0FF08E4B2285D4628F8
:101EF00001D0B442F2D30846FEF756F9CBF80C00F5
:101F0000641CE4B2B442FFF46DAF0BB0BDE8F08FD7
:101F1000000000202DE9F047DFF8B4A0DFF8B4900E
:101F20001D4616460F468046002400BF5FEA084063
:101F300001D5012200E0002240214846FEF7F4FED0
:101F4000380401D5012200E0002280214846FEF736
:101F5000EBFE300401D5012200E0002201215046B1
:101F6000FEF7E2FE280401D5012200E00022022152
:101F70005046FEF7D9FE00BF002220214846FEF75A
:101F8000D3FE00BF00BF022000BF401C1228FBD3BD
:101F9000012220214846FEF7C7FE4FF6FF70710070
:101FA000641CE4B200EA480800EA47070EB200EAFF
:101FB0004505102CBAD30022C0214846FEF7B4FED6
:101FC000002203215046FEF7AFFE00BFBDE8F087B8
:101FD000000C01400008014053544D2D33325B305A
:101FE0005D2D3E20463A0000000000000000000089
:101FF00000000000000000000000000000000102DE
:102000000304060708090000000001020304004061
:1020100040404040404040404141414141404040BB
:1020200040404040404040404040404040404005EB
:102030000202020202020202020202020202022062
:102040002020202020202020200202020202020262
:102050009090909090901010101010101010101080
:1020600010101010101010101010020202020202C4
:1020700088888888888808080808080808080808E0
:1020800008080808080808080808020202024000B8
:102090000F200008B4200008000000204C000000C1
:1020A000A01A0008002100084C000020BC05000018
:1020B000B01A000800000000000000001E00000030
:1020C0000F00000000000000000000000000000001
:1020D0000000000000000000000000000000000000
:1020E00000000000000000000000000001000000EF
:1020F00010000000000000000024F40000000000B8
:04000005080000ED02
:00000001FF
